{
  "_format": "hh-sol-artifact-1",
  "contractName": "EvolutionaryMinter",
  "sourceName": "contracts/Minters/EvolutionaryMinter.sol",
  "abi": [
    {
      "inputs": [
        {
          "internalType": "address",
          "name": "defaultAdmin",
          "type": "address"
        },
        {
          "components": [
            {
              "internalType": "address",
              "name": "nft",
              "type": "address"
            },
            {
              "internalType": "bytes32",
              "name": "rootGTD",
              "type": "bytes32"
            },
            {
              "internalType": "bytes32",
              "name": "rootWait",
              "type": "bytes32"
            },
            {
              "internalType": "uint256",
              "name": "startGTD",
              "type": "uint256"
            },
            {
              "internalType": "uint256",
              "name": "startWait",
              "type": "uint256"
            },
            {
              "internalType": "uint256",
              "name": "startPublic",
              "type": "uint256"
            },
            {
              "internalType": "uint256",
              "name": "supply",
              "type": "uint256"
            }
          ],
          "internalType": "struct EvolutionaryMinter.Init",
          "name": "init",
          "type": "tuple"
        }
      ],
      "stateMutability": "nonpayable",
      "type": "constructor"
    },
    {
      "inputs": [],
      "name": "AccessControlBadConfirmation",
      "type": "error"
    },
    {
      "inputs": [
        {
          "internalType": "address",
          "name": "account",
          "type": "address"
        },
        {
          "internalType": "bytes32",
          "name": "neededRole",
          "type": "bytes32"
        }
      ],
      "name": "AccessControlUnauthorizedAccount",
      "type": "error"
    },
    {
      "anonymous": false,
      "inputs": [
        {
          "indexed": false,
          "internalType": "address",
          "name": "user",
          "type": "address"
        },
        {
          "indexed": false,
          "internalType": "enum EvolutionaryMinter.Phase",
          "name": "phase",
          "type": "uint8"
        },
        {
          "indexed": false,
          "internalType": "uint256",
          "name": "supplyRemains",
          "type": "uint256"
        }
      ],
      "name": "Claimed",
      "type": "event"
    },
    {
      "anonymous": false,
      "inputs": [
        {
          "indexed": true,
          "internalType": "bytes32",
          "name": "role",
          "type": "bytes32"
        },
        {
          "indexed": true,
          "internalType": "bytes32",
          "name": "previousAdminRole",
          "type": "bytes32"
        },
        {
          "indexed": true,
          "internalType": "bytes32",
          "name": "newAdminRole",
          "type": "bytes32"
        }
      ],
      "name": "RoleAdminChanged",
      "type": "event"
    },
    {
      "anonymous": false,
      "inputs": [
        {
          "indexed": true,
          "internalType": "bytes32",
          "name": "role",
          "type": "bytes32"
        },
        {
          "indexed": true,
          "internalType": "address",
          "name": "account",
          "type": "address"
        },
        {
          "indexed": true,
          "internalType": "address",
          "name": "sender",
          "type": "address"
        }
      ],
      "name": "RoleGranted",
      "type": "event"
    },
    {
      "anonymous": false,
      "inputs": [
        {
          "indexed": true,
          "internalType": "bytes32",
          "name": "role",
          "type": "bytes32"
        },
        {
          "indexed": true,
          "internalType": "address",
          "name": "account",
          "type": "address"
        },
        {
          "indexed": true,
          "internalType": "address",
          "name": "sender",
          "type": "address"
        }
      ],
      "name": "RoleRevoked",
      "type": "event"
    },
    {
      "inputs": [],
      "name": "ADMIN_ROLE",
      "outputs": [
        {
          "internalType": "bytes32",
          "name": "",
          "type": "bytes32"
        }
      ],
      "stateMutability": "view",
      "type": "function"
    },
    {
      "inputs": [],
      "name": "DEFAULT_ADMIN_ROLE",
      "outputs": [
        {
          "internalType": "bytes32",
          "name": "",
          "type": "bytes32"
        }
      ],
      "stateMutability": "view",
      "type": "function"
    },
    {
      "inputs": [
        {
          "internalType": "address",
          "name": "",
          "type": "address"
        }
      ],
      "name": "claimed",
      "outputs": [
        {
          "internalType": "bool",
          "name": "",
          "type": "bool"
        }
      ],
      "stateMutability": "view",
      "type": "function"
    },
    {
      "inputs": [
        {
          "internalType": "bytes32",
          "name": "role",
          "type": "bytes32"
        }
      ],
      "name": "getRoleAdmin",
      "outputs": [
        {
          "internalType": "bytes32",
          "name": "",
          "type": "bytes32"
        }
      ],
      "stateMutability": "view",
      "type": "function"
    },
    {
      "inputs": [
        {
          "internalType": "bytes32",
          "name": "role",
          "type": "bytes32"
        },
        {
          "internalType": "address",
          "name": "account",
          "type": "address"
        }
      ],
      "name": "grantRole",
      "outputs": [],
      "stateMutability": "nonpayable",
      "type": "function"
    },
    {
      "inputs": [
        {
          "internalType": "bytes32",
          "name": "role",
          "type": "bytes32"
        },
        {
          "internalType": "address",
          "name": "account",
          "type": "address"
        }
      ],
      "name": "hasRole",
      "outputs": [
        {
          "internalType": "bool",
          "name": "",
          "type": "bool"
        }
      ],
      "stateMutability": "view",
      "type": "function"
    },
    {
      "inputs": [],
      "name": "mintPublic",
      "outputs": [],
      "stateMutability": "nonpayable",
      "type": "function"
    },
    {
      "inputs": [
        {
          "internalType": "bytes32[]",
          "name": "proof",
          "type": "bytes32[]"
        }
      ],
      "name": "mintWithProof",
      "outputs": [],
      "stateMutability": "nonpayable",
      "type": "function"
    },
    {
      "inputs": [],
      "name": "nftAddress",
      "outputs": [
        {
          "internalType": "address",
          "name": "",
          "type": "address"
        }
      ],
      "stateMutability": "view",
      "type": "function"
    },
    {
      "inputs": [
        {
          "internalType": "bytes32",
          "name": "role",
          "type": "bytes32"
        },
        {
          "internalType": "address",
          "name": "callerConfirmation",
          "type": "address"
        }
      ],
      "name": "renounceRole",
      "outputs": [],
      "stateMutability": "nonpayable",
      "type": "function"
    },
    {
      "inputs": [
        {
          "internalType": "bytes32",
          "name": "role",
          "type": "bytes32"
        },
        {
          "internalType": "address",
          "name": "account",
          "type": "address"
        }
      ],
      "name": "revokeRole",
      "outputs": [],
      "stateMutability": "nonpayable",
      "type": "function"
    },
    {
      "inputs": [
        {
          "internalType": "bytes32",
          "name": "newRoot",
          "type": "bytes32"
        }
      ],
      "name": "setRootGTD",
      "outputs": [],
      "stateMutability": "nonpayable",
      "type": "function"
    },
    {
      "inputs": [
        {
          "internalType": "bytes32",
          "name": "newRoot",
          "type": "bytes32"
        }
      ],
      "name": "setRootWait",
      "outputs": [],
      "stateMutability": "nonpayable",
      "type": "function"
    },
    {
      "inputs": [],
      "name": "startGTD",
      "outputs": [
        {
          "internalType": "uint256",
          "name": "",
          "type": "uint256"
        }
      ],
      "stateMutability": "view",
      "type": "function"
    },
    {
      "inputs": [],
      "name": "startPublic",
      "outputs": [
        {
          "internalType": "uint256",
          "name": "",
          "type": "uint256"
        }
      ],
      "stateMutability": "view",
      "type": "function"
    },
    {
      "inputs": [],
      "name": "startWait",
      "outputs": [
        {
          "internalType": "uint256",
          "name": "",
          "type": "uint256"
        }
      ],
      "stateMutability": "view",
      "type": "function"
    },
    {
      "inputs": [],
      "name": "supplyRemains",
      "outputs": [
        {
          "internalType": "uint256",
          "name": "",
          "type": "uint256"
        }
      ],
      "stateMutability": "view",
      "type": "function"
    },
    {
      "inputs": [
        {
          "internalType": "bytes4",
          "name": "interfaceId",
          "type": "bytes4"
        }
      ],
      "name": "supportsInterface",
      "outputs": [
        {
          "internalType": "bool",
          "name": "",
          "type": "bool"
        }
      ],
      "stateMutability": "view",
      "type": "function"
    }
  ],
  "bytecode": "0x60a060405234801561001057600080fd5b50604051610e90380380610e9083398101604081905261002f91610171565b61003a6000836100a9565b506100657fa49807205ce4d355092ef5a8a18f56e8913cf4a201fbe287825b095693c21775836100a9565b5080516001600160a01b0316608090815260208201516001556040820151600255606082015160045581015160055560a081015160065560c0015160035550610238565b6000828152602081815260408083206001600160a01b038516845290915281205460ff1661014b576000838152602081815260408083206001600160a01b03861684529091529020805460ff191660011790556101033390565b6001600160a01b0316826001600160a01b0316847f2f8788117e7eff1d82e926ec794901d17c78024a50270940304540a733656f0d60405160405180910390a450600161014f565b5060005b92915050565b80516001600160a01b038116811461016c57600080fd5b919050565b60008082840361010081121561018657600080fd5b61018f84610155565b925060e0601f19820112156101a357600080fd5b5060405160e081016001600160401b03811182821017156101d457634e487b7160e01b600052604160045260246000fd5b6040526101e360208501610155565b81526040848101516020830152606080860151918301919091526080808601519183019190915260a0808601519183019190915260c0808601519183019190915260e090940151938101939093525092909150565b608051610c3661025a600039600081816101a101526107a30152610c366000f3fe608060405234801561001057600080fd5b50600436106101165760003560e01c80639411ef0b116100a2578063c884ef8311610071578063c884ef8314610253578063cf135c8614610276578063d338b03c14610289578063d547741f1461029c578063ed47e8af146102af57600080fd5b80639411ef0b14610226578063a217fddf1461022f578063a328225214610237578063c11442f81461024a57600080fd5b80635bf8633a116100e95780635bf8633a1461019c5780635e302e43146101db57806375b238fc146101e45780638c874ebd1461020b57806391d148541461021357600080fd5b806301ffc9a71461011b578063248a9ca3146101435780632f2ff15d1461017457806336568abe14610189575b600080fd5b61012e610129366004610a01565b6102b8565b60405190151581526020015b60405180910390f35b610166610151366004610a2b565b60009081526020819052604090206001015490565b60405190815260200161013a565b610187610182366004610a60565b6102ef565b005b610187610197366004610a60565b61031a565b6101c37f000000000000000000000000000000000000000000000000000000000000000081565b6040516001600160a01b03909116815260200161013a565b61016660035481565b6101667fa49807205ce4d355092ef5a8a18f56e8913cf4a201fbe287825b095693c2177581565b610187610352565b61012e610221366004610a60565b610419565b61016660055481565b610166600081565b610187610245366004610a2b565b610442565b61016660065481565b61012e610261366004610a8c565b60076020526000908152604090205460ff1681565b610187610284366004610a2b565b610472565b610187610297366004610abd565b6104a2565b6101876102aa366004610a60565b610605565b61016660045481565b60006001600160e01b03198216637965db0b60e01b14806102e957506301ffc9a760e01b6001600160e01b03198316145b92915050565b60008281526020819052604090206001015461030a8161062a565b6103148383610637565b50505050565b6001600160a01b03811633146103435760405163334bd91960e11b815260040160405180910390fd5b61034d82826106c9565b505050565b3360009081526007602052604090205460ff16156103ab5760405162461bcd60e51b8152602060048201526011602482015270416c6c726561647920636c61696d65642160781b60448201526064015b60405180910390fd5b6006544210156103f35760405162461bcd60e51b8152602060048201526013602482015272546f6f206561726c7920746f20636c61696d2160681b60448201526064016103a2565b336000908152600760205260409020805460ff191660011790556104176002610734565b565b6000918252602082815260408084206001600160a01b0393909316845291905290205460ff1690565b7fa49807205ce4d355092ef5a8a18f56e8913cf4a201fbe287825b095693c2177561046c8161062a565b50600155565b7fa49807205ce4d355092ef5a8a18f56e8913cf4a201fbe287825b095693c2177561049c8161062a565b50600255565b3360009081526007602052604090205460ff16156104f65760405162461bcd60e51b8152602060048201526011602482015270416c6c726561647920636c61696d65642160781b60448201526064016103a2565b60045442101561053e5760405162461bcd60e51b8152602060048201526013602482015272546f6f206561726c7920746f20636c61696d2160681b60448201526064016103a2565b604080513360208201526000910160408051601f19818403018152828252805160209182012090830152016040516020818303038152906040528051906020012090506005544210156105b357336000908152600760205260409020805460ff191660011790556105af8282610847565b5050565b6006544210156105e157336000908152600760205260409020805460ff191660011790556105af82826108c4565b336000908152600760205260409020805460ff191660011790556105af6002610734565b6000828152602081905260409020600101546106208161062a565b61031483836106c9565b610634813361093d565b50565b60006106438383610419565b6106c1576000838152602081815260408083206001600160a01b03861684529091529020805460ff191660011790556106793390565b6001600160a01b0316826001600160a01b0316847f2f8788117e7eff1d82e926ec794901d17c78024a50270940304540a733656f0d60405160405180910390a45060016102e9565b5060006102e9565b60006106d58383610419565b156106c1576000838152602081815260408083206001600160a01b0386168085529252808320805460ff1916905551339286917ff6391f5c32d9c69d2a47ea670b442974b53935d1edc7fd64eb21e047a839171b9190a45060016102e9565b6000600354116107765760405162461bcd60e51b815260206004820152600d60248201526c4f7574206f662073746f636b2160981b60448201526064016103a2565b6001600360008282546107899190610b8a565b90915550506040516340d097c360e01b81523360048201527f00000000000000000000000000000000000000000000000000000000000000006001600160a01b0316906340d097c390602401600060405180830381600087803b1580156107ef57600080fd5b505af1158015610803573d6000803e3d6000fd5b505050507fc73092756e22756fd0b15b2f803bd49db35ee23e7ae171c4d414ab7a61fa8b7c338260035460405161083c93929190610bab565b60405180910390a150565b60015461085690839083610976565b6108ba5760405162461bcd60e51b815260206004820152602f60248201527f53656e6465722069736e277420696e204754442077686974656c697374206f7260448201526e20696e76616c69642070726f6f662160881b60648201526084016103a2565b6105af6000610734565b6002546108d390839083610976565b6109335760405162461bcd60e51b815260206004820152602b60248201527f53656e6465722069736e277420696e2077686974656c697374206f7220696e7660448201526a616c69642070726f6f662160a81b60648201526084016103a2565b6105af6001610734565b6109478282610419565b6105af5760405163e2517d3f60e01b81526001600160a01b0382166004820152602481018390526044016103a2565b600082610983858461098c565b14949350505050565b600081815b84518110156109c7576109bd828683815181106109b0576109b0610bea565b60200260200101516109cf565b9150600101610991565b509392505050565b60008183106109eb5760008281526020849052604090206109fa565b60008381526020839052604090205b9392505050565b600060208284031215610a1357600080fd5b81356001600160e01b0319811681146109fa57600080fd5b600060208284031215610a3d57600080fd5b5035919050565b80356001600160a01b0381168114610a5b57600080fd5b919050565b60008060408385031215610a7357600080fd5b82359150610a8360208401610a44565b90509250929050565b600060208284031215610a9e57600080fd5b6109fa82610a44565b634e487b7160e01b600052604160045260246000fd5b600060208284031215610acf57600080fd5b813567ffffffffffffffff811115610ae657600080fd5b8201601f81018413610af757600080fd5b803567ffffffffffffffff811115610b1157610b11610aa7565b8060051b604051601f19603f830116810181811067ffffffffffffffff82111715610b3e57610b3e610aa7565b604052918252602081840181019290810187841115610b5c57600080fd5b6020850194505b83851015610b7f57843580825260209586019590935001610b63565b509695505050505050565b818103818111156102e957634e487b7160e01b600052601160045260246000fd5b6001600160a01b03841681526060810160038410610bd957634e487b7160e01b600052602160045260246000fd5b602082019390935260400152919050565b634e487b7160e01b600052603260045260246000fdfea26469706673582212200c938e62f7dd4385685e5ce63c227e2db8be82c87203109761c5e13cfffe87c764736f6c634300081b0033",
  "linkReferences": {},
  "deployedLinkReferences": {}
}